:04000000FEEF7FF0A0
:10FD76000E6A0D6A0C6A0B6A000163EF7FF0AF949E
:10FD86000301EB51046E036AEA510324016E000E6F
:10FD96000420026E12000201E48FE59F250EE86F33
:10FDA600800EE76FE695E58FE48B290E0F6F120044
:10FDB600010E0001606F7E0E616FC10E636F7F0ED4
:10FDC600646F700E656FBF0E666F676968691200B3
:10FDD6000C0E0301EC6F000EEF6F000EEE6F000EBF
:10FDE600F86F040EF36FAF949F84D68EF789F49163
:10FDF600F59FF3811200015003026100CCF305F573
:10FE06006100D0F306F501500402F35006260250B5
:10FE16000302F350062605C501F506C502F51200D4
:10FE2600350EC66E000ECE6E000EBE6E210EC76E6D
:10FE3600000ECF6E000EBF6E7C0EC86E000ED06E2A
:10FE4600000EC06ECF0EC96E000ED16E000EC16ED2
:10FE5600030ECA6E000ED26E000EC26EEE0ECB6E92
:10FE6600000ED36E000EC36E1200760E0201DC6F1A
:10FE760059EF7FF008C501F509C502F5000E046EBD
:10FE86000A0E036E92EC7FF00150300F0201DC6F18
:10FE960008C501F509C502F5000E046E0A0E036ECB
:10FEA600C4EC7FF001C508F502C509F50850091034
:10FEB600D8A460EF7FF062EF7FF03DEF7FF0120095
:10FEC600DBEC7EF013EC7FF0CEEC7EF0EBEC7EF01C
:10FED600AFA470EF7FF072EF7FF06BEF7FF0C2ECB4
:10FEE6007EF001C50DF502C50EF50DC501F50EC571
:10FEF60002F5010E046EF40E036EFEEC7EF00C0E9F
:10FF06000A6ED890023201320A2E84EF7FF001C5C4
:10FF16000BF502C50CF569EF7FF0FEEF7FF003509D
:10FF26000410D8B499EF7FF09BEF7FF0BFEF7FF01E
:10FF3600010E056EA3EF7FF0D89003360436052A2E
:10FF460004AEA8EF7FF0AAEF7FF09FEF7FF003509B
:10FF5600015C04500258D8A0B3EF7FF0B5EF7FF0F4
:10FF6600B9EF7FF00350015E0450025AD890043274
:10FF76000332052EAAEF7FF001C501F502C502F591
:10FF86001200000E066E000E056E03500410D8B463
:10FF9600CFEF7FF0D1EF7FF0F9EF7FF0010E076E24
:10FFA600D9EF7FF0D89003360436072A04AEDEEF89
:10FFB6007FF0E0EF7FF0D5EF7FF0D890053606367C
:10FFC6000350015C04500258D8A0ECEF7FF0EEEF2E
:10FFD6007FF0F3EF7FF00350015E0450025A058074
:10FFE600D89004320332072EE0EF7FF005C501F505
:0AFFF60006C502F51200BBEF7EF015
:020000040020DA
:10000000FF0FFF0FFF0FFF0FFF0FFF0FFF0FFF0F80
:10001000FF0FFF0FFF0FFF0FFF0FFF0FFF0FFF0F70
:020000040030CA
:0A000000FFFFFFFFFFFFFFFFFFFF00
:00000001FF
